{
  "contractName": "Lands",
  "abi": [
    {
      "constant": true,
      "inputs": [
        {
          "name": "",
          "type": "uint256"
        }
      ],
      "name": "landHistory",
      "outputs": [
        {
          "name": "date",
          "type": "string"
        },
        {
          "name": "sellamount",
          "type": "uint256"
        },
        {
          "name": "currentowner",
          "type": "address"
        }
      ],
      "payable": false,
      "stateMutability": "view",
      "type": "function",
      "signature": "0x050cb6bf"
    },
    {
      "constant": true,
      "inputs": [
        {
          "name": "",
          "type": "bytes32"
        }
      ],
      "name": "landState",
      "outputs": [
        {
          "name": "",
          "type": "uint8"
        }
      ],
      "payable": false,
      "stateMutability": "view",
      "type": "function",
      "signature": "0x054cec58"
    },
    {
      "constant": true,
      "inputs": [
        {
          "name": "",
          "type": "bytes32"
        },
        {
          "name": "",
          "type": "uint256"
        }
      ],
      "name": "landHistories",
      "outputs": [
        {
          "name": "date",
          "type": "string"
        },
        {
          "name": "sellamount",
          "type": "uint256"
        },
        {
          "name": "currentowner",
          "type": "address"
        }
      ],
      "payable": false,
      "stateMutability": "view",
      "type": "function",
      "signature": "0x268d7da0"
    },
    {
      "constant": true,
      "inputs": [
        {
          "name": "",
          "type": "address"
        },
        {
          "name": "",
          "type": "bytes32"
        }
      ],
      "name": "landSales",
      "outputs": [
        {
          "name": "amount",
          "type": "uint256"
        },
        {
          "name": "conditions",
          "type": "string"
        },
        {
          "name": "accepted",
          "type": "bool"
        }
      ],
      "payable": false,
      "stateMutability": "view",
      "type": "function",
      "signature": "0x327fad99"
    },
    {
      "constant": true,
      "inputs": [
        {
          "name": "",
          "type": "bytes32"
        }
      ],
      "name": "landDetails",
      "outputs": [
        {
          "name": "owner",
          "type": "address"
        },
        {
          "name": "ipfsTitleDeed",
          "type": "string"
        },
        {
          "name": "issueDate",
          "type": "string"
        },
        {
          "name": "alloted",
          "type": "bool"
        },
        {
          "name": "registered",
          "type": "bool"
        }
      ],
      "payable": false,
      "stateMutability": "view",
      "type": "function",
      "signature": "0x5d85ff1c"
    },
    {
      "constant": true,
      "inputs": [],
      "name": "state",
      "outputs": [
        {
          "name": "",
          "type": "uint8"
        }
      ],
      "payable": false,
      "stateMutability": "view",
      "type": "function",
      "signature": "0xc19d93fb"
    },
    {
      "constant": true,
      "inputs": [
        {
          "name": "",
          "type": "uint256"
        }
      ],
      "name": "titleDetails",
      "outputs": [
        {
          "name": "landNumber",
          "type": "bytes32"
        },
        {
          "name": "location",
          "type": "bytes32"
        },
        {
          "name": "size",
          "type": "bytes32"
        }
      ],
      "payable": false,
      "stateMutability": "view",
      "type": "function",
      "signature": "0xd8be5ba8"
    },
    {
      "inputs": [],
      "payable": false,
      "stateMutability": "nonpayable",
      "type": "constructor",
      "signature": "constructor"
    },
    {
      "constant": false,
      "inputs": [
        {
          "name": "_landnumber",
          "type": "bytes32"
        },
        {
          "name": "_location",
          "type": "bytes32"
        },
        {
          "name": "_size",
          "type": "bytes32"
        },
        {
          "name": "_long",
          "type": "int256"
        },
        {
          "name": "_lat",
          "type": "int256"
        },
        {
          "name": "_issueDate",
          "type": "string"
        },
        {
          "name": "_ipfsTitleDeed",
          "type": "string"
        }
      ],
      "name": "registerLand",
      "outputs": [],
      "payable": false,
      "stateMutability": "nonpayable",
      "type": "function",
      "signature": "0x68d25c92"
    },
    {
      "constant": false,
      "inputs": [
        {
          "name": "_to",
          "type": "address"
        },
        {
          "name": "_landnumber",
          "type": "bytes32"
        }
      ],
      "name": "allotLand",
      "outputs": [
        {
          "name": "success",
          "type": "bool"
        }
      ],
      "payable": false,
      "stateMutability": "nonpayable",
      "type": "function",
      "signature": "0xfdcd1c90"
    },
    {
      "constant": false,
      "inputs": [
        {
          "name": "_landnumber",
          "type": "bytes32"
        },
        {
          "name": "_to",
          "type": "address"
        },
        {
          "name": "_amount",
          "type": "uint256"
        },
        {
          "name": "_condition",
          "type": "string"
        }
      ],
      "name": "initiateSell",
      "outputs": [],
      "payable": false,
      "stateMutability": "nonpayable",
      "type": "function",
      "signature": "0xc4b3d4e5"
    },
    {
      "constant": false,
      "inputs": [
        {
          "name": "_landnumber",
          "type": "bytes32"
        },
        {
          "name": "_date",
          "type": "string"
        }
      ],
      "name": "acceptSell",
      "outputs": [
        {
          "name": "_from",
          "type": "address"
        }
      ],
      "payable": false,
      "stateMutability": "nonpayable",
      "type": "function",
      "signature": "0x04d6f0ce"
    },
    {
      "constant": false,
      "inputs": [
        {
          "name": "_from",
          "type": "address"
        },
        {
          "name": "_to",
          "type": "address"
        },
        {
          "name": "_landnumber",
          "type": "bytes32"
        },
        {
          "name": "_date",
          "type": "string"
        }
      ],
      "name": "transferland",
      "outputs": [
        {
          "name": "_amount",
          "type": "uint256"
        }
      ],
      "payable": false,
      "stateMutability": "nonpayable",
      "type": "function",
      "signature": "0xbcbbfd60"
    },
    {
      "constant": true,
      "inputs": [],
      "name": "registeredLands",
      "outputs": [
        {
          "components": [
            {
              "name": "landNumber",
              "type": "bytes32"
            },
            {
              "name": "location",
              "type": "bytes32"
            },
            {
              "name": "size",
              "type": "bytes32"
            }
          ],
          "name": "",
          "type": "tuple[]"
        }
      ],
      "payable": false,
      "stateMutability": "view",
      "type": "function",
      "signature": "0x03076da4"
    }
  ],
  "bytecode": "0x608060405234801561001057600080fd5b5033600760006101000a81548173ffffffffffffffffffffffffffffffffffffffff021916908373ffffffffffffffffffffffffffffffffffffffff1602179055506118ba806100616000396000f3fe608060405234801561001057600080fd5b50600436106100ec576000357c0100000000000000000000000000000000000000000000000000000000900480635d85ff1c116100a9578063c19d93fb11610083578063c19d93fb14610285578063c4b3d4e5146102a3578063d8be5ba8146102bf578063fdcd1c90146102f1576100ec565b80635d85ff1c1461020557806368d25c9214610239578063bcbbfd6014610255576100ec565b806303076da4146100f157806304d6f0ce1461010f578063050cb6bf1461013f578063054cec5814610171578063268d7da0146101a1578063327fad99146101d3575b600080fd5b6100f9610321565b6040516101069190611592565b60405180910390f35b61012960048036036101249190810190611316565b61039f565b6040516101369190611516565b60405180910390f35b610159600480360361015491908101906113a6565b6104cc565b60405161016893929190611621565b60405180910390f35b61018b600480360361018691908101906111a4565b6105bd565b6040516101989190611606565b60405180910390f35b6101bb60048036036101b6919081019061136a565b6105dd565b6040516101ca93929190611621565b60405180910390f35b6101ed60048036036101e89190810190611168565b6106db565b6040516101fc9392919061167a565b60405180910390f35b61021f600480360361021a91908101906111a4565b6107b7565b604051610230959493929190611531565b60405180910390f35b610253600480360361024e9190810190611248565b610957565b005b61026f600480360361026a91908101906110ed565b610b36565b60405161027c919061165f565b60405180910390f35b61028d610d37565b60405161029a9190611606565b60405180910390f35b6102bd60048036036102b891908101906111cd565b610d49565b005b6102d960048036036102d491908101906113a6565b610e65565b6040516102e8939291906115cf565b60405180910390f35b61030b60048036036103069190810190611168565b610e9e565b60405161031891906115b4565b60405180910390f35b60606001805480602002602001604051908101604052809291908181526020016000905b82821015610396578382906000526020600020906003020160606040519081016040529081600082015481526020016001820154815260200160028201548152505081526020019060010190610345565b50505050905090565b6000600660003373ffffffffffffffffffffffffffffffffffffffff1673ffffffffffffffffffffffffffffffffffffffff168152602001908152602001600020600084815260200190815260200160002060020160009054906101000a900460ff1615151561040e57600080fd5b6003600084815260200190815260200160002060000160009054906101000a900473ffffffffffffffffffffffffffffffffffffffff16905061045381338585610b36565b506000600660003373ffffffffffffffffffffffffffffffffffffffff1673ffffffffffffffffffffffffffffffffffffffff1681526020019081526020016000206000858152602001908152602001600020905060018160020160006101000a81548160ff0219169083151502179055505092915050565b6002818154811015156104db57fe5b9060005260206000209060030201600091509050806000018054600181600116156101000203166002900480601f0160208091040260200160405190810160405280929190818152602001828054600181600116156101000203166002900480156105875780601f1061055c57610100808354040283529160200191610587565b820191906000526020600020905b81548152906001019060200180831161056a57829003601f168201915b5050505050908060010154908060020160009054906101000a900473ffffffffffffffffffffffffffffffffffffffff16905083565b60056020528060005260406000206000915054906101000a900460ff1681565b6004602052816000526040600020818154811015156105f857fe5b906000526020600020906003020160009150915050806000018054600181600116156101000203166002900480601f0160208091040260200160405190810160405280929190818152602001828054600181600116156101000203166002900480156106a55780601f1061067a576101008083540402835291602001916106a5565b820191906000526020600020905b81548152906001019060200180831161068857829003601f168201915b5050505050908060010154908060020160009054906101000a900473ffffffffffffffffffffffffffffffffffffffff16905083565b600660205281600052604060002060205280600052604060002060009150915050806000015490806001018054600181600116156101000203166002900480601f01602080910402602001604051908101604052809291908181526020018280546001816001161561010002031660029004801561079a5780601f1061076f5761010080835404028352916020019161079a565b820191906000526020600020905b81548152906001019060200180831161077d57829003601f168201915b5050505050908060020160009054906101000a900460ff16905083565b60036020528060005260406000206000915090508060000160009054906101000a900473ffffffffffffffffffffffffffffffffffffffff1690806002018054600181600116156101000203166002900480601f0160208091040260200160405190810160405280929190818152602001828054600181600116156101000203166002900480156108895780601f1061085e57610100808354040283529160200191610889565b820191906000526020600020905b81548152906001019060200180831161086c57829003601f168201915b505050505090806003018054600181600116156101000203166002900480601f0160208091040260200160405190810160405280929190818152602001828054600181600116156101000203166002900480156109275780601f106108fc57610100808354040283529160200191610927565b820191906000526020600020905b81548152906001019060200180831161090a57829003601f168201915b5050505050908060040160009054906101000a900460ff16908060040160019054906101000a900460ff16905085565b600760009054906101000a900473ffffffffffffffffffffffffffffffffffffffff1673ffffffffffffffffffffffffffffffffffffffff163373ffffffffffffffffffffffffffffffffffffffff161415156109b357600080fd5b6003600088815260200190815260200160002060040160019054906101000a900460ff161515156109e357600080fd5b6000600190506000600360008a815260200190815260200160002090506000600360008b81526020019081526020016000206001019050826060604051908101604052808c81526020018b81526020018a8152509080600181540180825580915050906001820390600052602060002090600302016000909192909190915060008201518160000155602082015181600101556040820151816002015550505084826003019080519060200190610a9b929190610f22565b5060018260040160016101000a81548160ff02191690831515021790555083826002019080519060200190610ad1929190610f22565b508060408051908101604052808981526020018881525090806001815401808255809150509060018203906000526020600020906002020160009091929091909150600082015181600001556020820151816001015550505050505050505050505050565b60006003600084815260200190815260200160002060000160009054906101000a900473ffffffffffffffffffffffffffffffffffffffff1673ffffffffffffffffffffffffffffffffffffffff168573ffffffffffffffffffffffffffffffffffffffff16141515610ba857600080fd5b6000600360008581526020019081526020016000209050600060029050858260000160006101000a81548173ffffffffffffffffffffffffffffffffffffffff021916908373ffffffffffffffffffffffffffffffffffffffff160217905550600660008773ffffffffffffffffffffffffffffffffffffffff1673ffffffffffffffffffffffffffffffffffffffff1681526020019081526020016000206000868152602001908152602001600020600001549250806060604051908101604052808681526020018581526020018873ffffffffffffffffffffffffffffffffffffffff16815250908060018154018082558091505090600182039060005260206000209060030201600090919290919091506000820151816000019080519060200190610cd8929190610fa2565b506020820151816001015560408201518160020160006101000a81548173ffffffffffffffffffffffffffffffffffffffff021916908373ffffffffffffffffffffffffffffffffffffffff1602179055505050505050949350505050565b6000809054906101000a900460ff1681565b6003600085815260200190815260200160002060040160019054906101000a900460ff161515610d7857600080fd5b3373ffffffffffffffffffffffffffffffffffffffff166003600086815260200190815260200160002060000160009054906101000a900473ffffffffffffffffffffffffffffffffffffffff1673ffffffffffffffffffffffffffffffffffffffff16141515610de857600080fd5b6000600660008573ffffffffffffffffffffffffffffffffffffffff1673ffffffffffffffffffffffffffffffffffffffff1681526020019081526020016000206000868152602001908152602001600020905082816000018190555081816001019080519060200190610e5d929190610f22565b505050505050565b600181815481101515610e7457fe5b90600052602060002090600302016000915090508060000154908060010154908060020154905083565b6000806003600084815260200190815260200160002090508060040160009054906101000a900460ff16151515610ed457600080fd5b838160000160006101000a81548173ffffffffffffffffffffffffffffffffffffffff021916908373ffffffffffffffffffffffffffffffffffffffff160217905550600191505092915050565b828054600181600116156101000203166002900490600052602060002090601f016020900481019282601f10610f6357805160ff1916838001178555610f91565b82800160010185558215610f91579182015b82811115610f90578251825591602001919060010190610f75565b5b509050610f9e9190611022565b5090565b828054600181600116156101000203166002900490600052602060002090601f016020900481019282601f10610fe357805160ff1916838001178555611011565b82800160010185558215611011579182015b82811115611010578251825591602001919060010190610ff5565b5b50905061101e9190611022565b5090565b61104491905b80821115611040576000816000905550600101611028565b5090565b90565b600061105382356117cb565b905092915050565b600061106782356117dd565b905092915050565b600061107b82356117e7565b905092915050565b600082601f830112151561109657600080fd5b81356110a96110a4826116e5565b6116b8565b915080825260208301602083018583830111156110c557600080fd5b6110d083828461182d565b50505092915050565b60006110e58235611811565b905092915050565b6000806000806080858703121561110357600080fd5b600061111187828801611047565b945050602061112287828801611047565b93505060406111338782880161105b565b925050606085013567ffffffffffffffff81111561115057600080fd5b61115c87828801611083565b91505092959194509250565b6000806040838503121561117b57600080fd5b600061118985828601611047565b925050602061119a8582860161105b565b9150509250929050565b6000602082840312156111b657600080fd5b60006111c48482850161105b565b91505092915050565b600080600080608085870312156111e357600080fd5b60006111f18782880161105b565b945050602061120287828801611047565b9350506040611213878288016110d9565b925050606085013567ffffffffffffffff81111561123057600080fd5b61123c87828801611083565b91505092959194509250565b600080600080600080600060e0888a03121561126357600080fd5b60006112718a828b0161105b565b97505060206112828a828b0161105b565b96505060406112938a828b0161105b565b95505060606112a48a828b0161106f565b94505060806112b58a828b0161106f565b93505060a088013567ffffffffffffffff8111156112d257600080fd5b6112de8a828b01611083565b92505060c088013567ffffffffffffffff8111156112fb57600080fd5b6113078a828b01611083565b91505092959891949750929550565b6000806040838503121561132957600080fd5b60006113378582860161105b565b925050602083013567ffffffffffffffff81111561135457600080fd5b61136085828601611083565b9150509250929050565b6000806040838503121561137d57600080fd5b600061138b8582860161105b565b925050602061139c858286016110d9565b9150509250929050565b6000602082840312156113b857600080fd5b60006113c6848285016110d9565b91505092915050565b60006113db83836114c5565b60608301905092915050565b6113f081611763565b82525050565b60006114018261171e565b61140b8185611741565b935061141683611711565b60005b828110156114445761142c8683516113cf565b955061143782611734565b9150600181019050611419565b50849250505092915050565b61145981611775565b82525050565b61146881611781565b82525050565b61147781611781565b82525050565b6114868161181b565b82525050565b600061149782611729565b6114a18185611752565b93506114b181856020860161183c565b6114ba8161186f565b840191505092915050565b6060820160008201516114db600085018261145f565b5060208201516114ee602085018261145f565b506040820151611501604085018261145f565b50505050565b611510816117c1565b82525050565b600060208201905061152b60008301846113e7565b92915050565b600060a08201905061154660008301886113e7565b8181036020830152611558818761148c565b9050818103604083015261156c818661148c565b905061157b6060830185611450565b6115886080830184611450565b9695505050505050565b600060208201905081810360008301526115ac81846113f6565b905092915050565b60006020820190506115c96000830184611450565b92915050565b60006060820190506115e4600083018661146e565b6115f1602083018561146e565b6115fe604083018461146e565b949350505050565b600060208201905061161b600083018461147d565b92915050565b6000606082019050818103600083015261163b818661148c565b905061164a6020830185611507565b61165760408301846113e7565b949350505050565b60006020820190506116746000830184611507565b92915050565b600060608201905061168f6000830186611507565b81810360208301526116a1818561148c565b90506116b06040830184611450565b949350505050565b6000604051905081810181811067ffffffffffffffff821117156116db57600080fd5b8060405250919050565b600067ffffffffffffffff8211156116fc57600080fd5b601f19601f8301169050602081019050919050565b6000602082019050919050565b600081519050919050565b600081519050919050565b6000602082019050919050565b600082825260208201905092915050565b600082825260208201905092915050565b600061176e826117a1565b9050919050565b60008115159050919050565b6000819050919050565b600060028210151561179957fe5b819050919050565b600073ffffffffffffffffffffffffffffffffffffffff82169050919050565b6000819050919050565b60006117d6826117f1565b9050919050565b6000819050919050565b6000819050919050565b600073ffffffffffffffffffffffffffffffffffffffff82169050919050565b6000819050919050565b60006118268261178b565b9050919050565b82818337600083830152505050565b60005b8381101561185a57808201518184015260208101905061183f565b83811115611869576000848401525b50505050565b6000601f19601f830116905091905056fea265627a7a72305820ee3969913d07dcbb2b32e632e8a69582e7d2235c15db0d5e66f9c10a7cd375c46c6578706572696d656e74616cf50037",
  "source": "pragma solidity 0.5.4;\r\npragma experimental ABIEncoderV2;\r\n\r\ncontract Lands {\r\n    \r\n    struct Title {\r\n        bytes32 landNumber;\r\n        bytes32 location;\r\n        bytes32 size;\r\n    }\r\n\r\n    struct Specs {\r\n        address owner;\r\n        Coordinates[] map;\r\n        string ipfsTitleDeed;\r\n        string issueDate;\r\n        bool alloted;\r\n        bool registered;\r\n    }\r\n\r\n    struct Coordinates {\r\n        int long;\r\n        int lat;\r\n    } \r\n   \r\n    struct SaleCondition {\r\n        uint256 amount;\r\n        string conditions;\r\n        bool accepted;\r\n    \r\n    }\r\n\r\n    struct History {\r\n        string date;\r\n        uint256 sellamount;\r\n        address currentowner;\r\n    } \r\n\r\n    enum State {onsell, oncaveat }\r\n\r\n    State public state;\r\n\r\n    Title[] public titleDetails;\r\n    History[] public landHistory;\r\n\r\n    mapping(bytes32=>Specs)public landDetails;\r\n    mapping (bytes32=>History[])public landHistories;\r\n    mapping (bytes32=>State)public landState;\r\n    mapping (address=>mapping (bytes32=>SaleCondition)) public landSales;\r\n\r\n\r\n    address private government;\r\n\r\n    constructor ()public {\r\n        government = msg.sender;\r\n    }\r\n   \r\n    // modifier name() {\r\n    //     _\r\n    // }\r\n\r\n    function registerLand\r\n    (bytes32 _landnumber, bytes32 _location, bytes32 _size, int _long, int _lat,\r\n    string memory _issueDate, string memory _ipfsTitleDeed) public  \r\n    {\r\n        require(msg.sender == government);\r\n        require(!landDetails[_landnumber].registered);\r\n        Title[] storage titl = titleDetails;\r\n        Specs storage spec = landDetails[_landnumber];\r\n        Coordinates[] storage cord = landDetails[_landnumber].map;\r\n        titl.push(Title({\r\n            landNumber : _landnumber,\r\n            location : _location,\r\n            size : _size\r\n        }));\r\n        spec.issueDate = _issueDate;\r\n        spec.registered = true;\r\n        spec.ipfsTitleDeed = _ipfsTitleDeed;\r\n        cord.push(Coordinates({\r\n            long : _long,\r\n            lat : _lat\r\n        }));\r\n    }\r\n\r\n    function allotLand(address _to, bytes32 _landnumber)public returns(bool success) {\r\n        Specs storage spec = landDetails[_landnumber];\r\n        require(!spec.alloted);\r\n        spec.owner = _to;\r\n        return true;\r\n    }\r\n\r\n    function initiateSell\r\n    (bytes32 _landnumber, address _to, uint256 _amount, string memory _condition )public \r\n    {\r\n        require(landDetails[_landnumber].registered);\r\n        require(landDetails[_landnumber].owner == msg.sender); \r\n        SaleCondition storage scon = landSales[_to][_landnumber];\r\n        scon.amount = _amount;\r\n        scon.conditions = _condition;\r\n    }\r\n\r\n    function acceptSell\r\n    (bytes32 _landnumber, string memory _date )public returns(address _from) \r\n    {\r\n        require(!landSales[msg.sender][_landnumber].accepted);\r\n        _from = landDetails[_landnumber].owner;\r\n        transferland(_from, msg.sender, _landnumber, _date);\r\n        SaleCondition storage scon = landSales[msg.sender][_landnumber];\r\n        scon.accepted = true;\r\n    }\r\n\r\n    function transferland\r\n    (address _from, address _to, bytes32 _landnumber, string memory _date ) public returns(uint256 _amount)\r\n    {   \r\n        require(_from == landDetails[_landnumber].owner);\r\n        Specs storage spec = landDetails[_landnumber];\r\n        History[] storage hist = landHistory;\r\n        spec.owner = _to;\r\n        _amount = landSales[_to][_landnumber].amount;\r\n        hist.push(History({\r\n            currentowner:_to,\r\n            sellamount:_amount,\r\n            date:_date\r\n        }));\r\n\r\n    } \r\n\r\n    function registeredLands()public view returns(Title[] memory) {\r\n        return titleDetails;\r\n    }\r\n}",
  "sourcePath": "C:/Users/COLLINS/Desktop/land/contracts/lands.sol",
  "compiler": {
    "name": "solc",
    "version": "0.5.4+commit.9549d8ff.Emscripten.clang"
  },
  "schemaVersion": "3.0.0-beta.2",
  "updatedAt": "2019-03-20T08:49:27.150Z",
  "devdoc": {
    "methods": {}
  },
  "userdoc": {
    "methods": {}
  }
}