{
  "contractName": "Lands",
  "abi": [
    {
      "constant": true,
      "inputs": [
        {
          "name": "",
          "type": "uint256"
        }
      ],
      "name": "landHistory",
      "outputs": [
        {
          "name": "date",
          "type": "string"
        },
        {
          "name": "sellamount",
          "type": "uint256"
        },
        {
          "name": "currentowner",
          "type": "address"
        }
      ],
      "payable": false,
      "stateMutability": "view",
      "type": "function",
      "signature": "0x050cb6bf"
    },
    {
      "constant": true,
      "inputs": [
        {
          "name": "",
          "type": "bytes32"
        }
      ],
      "name": "landState",
      "outputs": [
        {
          "name": "",
          "type": "uint8"
        }
      ],
      "payable": false,
      "stateMutability": "view",
      "type": "function",
      "signature": "0x054cec58"
    },
    {
      "constant": true,
      "inputs": [
        {
          "name": "",
          "type": "bytes32"
        },
        {
          "name": "",
          "type": "uint256"
        }
      ],
      "name": "landHistories",
      "outputs": [
        {
          "name": "date",
          "type": "string"
        },
        {
          "name": "sellamount",
          "type": "uint256"
        },
        {
          "name": "currentowner",
          "type": "address"
        }
      ],
      "payable": false,
      "stateMutability": "view",
      "type": "function",
      "signature": "0x268d7da0"
    },
    {
      "constant": true,
      "inputs": [
        {
          "name": "",
          "type": "address"
        },
        {
          "name": "",
          "type": "bytes32"
        }
      ],
      "name": "landSales",
      "outputs": [
        {
          "name": "amount",
          "type": "uint256"
        },
        {
          "name": "conditions",
          "type": "string"
        },
        {
          "name": "accepted",
          "type": "bool"
        }
      ],
      "payable": false,
      "stateMutability": "view",
      "type": "function",
      "signature": "0x327fad99"
    },
    {
      "constant": true,
      "inputs": [
        {
          "name": "",
          "type": "bytes32"
        }
      ],
      "name": "landDetails",
      "outputs": [
        {
          "name": "owner",
          "type": "address"
        },
        {
          "name": "ipfsTitleDeed",
          "type": "string"
        },
        {
          "name": "issueDate",
          "type": "string"
        },
        {
          "name": "alloted",
          "type": "bool"
        },
        {
          "name": "registered",
          "type": "bool"
        }
      ],
      "payable": false,
      "stateMutability": "view",
      "type": "function",
      "signature": "0x5d85ff1c"
    },
    {
      "constant": true,
      "inputs": [],
      "name": "state",
      "outputs": [
        {
          "name": "",
          "type": "uint8"
        }
      ],
      "payable": false,
      "stateMutability": "view",
      "type": "function",
      "signature": "0xc19d93fb"
    },
    {
      "constant": true,
      "inputs": [
        {
          "name": "",
          "type": "uint256"
        }
      ],
      "name": "titleDetails",
      "outputs": [
        {
          "name": "landNumber",
          "type": "bytes32"
        },
        {
          "name": "location",
          "type": "bytes32"
        },
        {
          "name": "size",
          "type": "bytes32"
        }
      ],
      "payable": false,
      "stateMutability": "view",
      "type": "function",
      "signature": "0xd8be5ba8"
    },
    {
      "inputs": [],
      "payable": false,
      "stateMutability": "nonpayable",
      "type": "constructor",
      "signature": "constructor"
    },
    {
      "constant": false,
      "inputs": [
        {
          "name": "_landnumber",
          "type": "bytes32"
        },
        {
          "name": "_location",
          "type": "bytes32"
        },
        {
          "name": "_size",
          "type": "bytes32"
        },
        {
          "name": "_long",
          "type": "int256"
        },
        {
          "name": "_lat",
          "type": "int256"
        },
        {
          "name": "_issueDate",
          "type": "string"
        },
        {
          "name": "_ipfsTitleDeed",
          "type": "string"
        }
      ],
      "name": "registerLand",
      "outputs": [],
      "payable": false,
      "stateMutability": "nonpayable",
      "type": "function",
      "signature": "0x68d25c92"
    },
    {
      "constant": false,
      "inputs": [
        {
          "name": "_to",
          "type": "address"
        },
        {
          "name": "_landnumber",
          "type": "bytes32"
        }
      ],
      "name": "allotLand",
      "outputs": [
        {
          "name": "success",
          "type": "bool"
        }
      ],
      "payable": false,
      "stateMutability": "nonpayable",
      "type": "function",
      "signature": "0xfdcd1c90"
    },
    {
      "constant": false,
      "inputs": [
        {
          "name": "_landnumber",
          "type": "bytes32"
        },
        {
          "name": "_to",
          "type": "address"
        },
        {
          "name": "_amount",
          "type": "uint256"
        },
        {
          "name": "_condition",
          "type": "string"
        }
      ],
      "name": "initiateSell",
      "outputs": [],
      "payable": false,
      "stateMutability": "nonpayable",
      "type": "function",
      "signature": "0xc4b3d4e5"
    },
    {
      "constant": false,
      "inputs": [
        {
          "name": "_landnumber",
          "type": "bytes32"
        },
        {
          "name": "_date",
          "type": "string"
        }
      ],
      "name": "acceptSell",
      "outputs": [
        {
          "name": "_from",
          "type": "address"
        }
      ],
      "payable": false,
      "stateMutability": "nonpayable",
      "type": "function",
      "signature": "0x04d6f0ce"
    },
    {
      "constant": false,
      "inputs": [
        {
          "name": "_from",
          "type": "address"
        },
        {
          "name": "_to",
          "type": "address"
        },
        {
          "name": "_landnumber",
          "type": "bytes32"
        },
        {
          "name": "_date",
          "type": "string"
        }
      ],
      "name": "transferland",
      "outputs": [
        {
          "name": "_amount",
          "type": "uint256"
        }
      ],
      "payable": false,
      "stateMutability": "nonpayable",
      "type": "function",
      "signature": "0xbcbbfd60"
    },
    {
      "constant": true,
      "inputs": [],
      "name": "registeredLands",
      "outputs": [
        {
          "name": "ln",
          "type": "bytes32[]"
        },
        {
          "name": "sz",
          "type": "bytes32[]"
        },
        {
          "name": "lo",
          "type": "bytes32[]"
        }
      ],
      "payable": false,
      "stateMutability": "view",
      "type": "function",
      "signature": "0x03076da4"
    }
  ],
  "bytecode": "0x608060405234801561001057600080fd5b5033600760006101000a81548173ffffffffffffffffffffffffffffffffffffffff021916908373ffffffffffffffffffffffffffffffffffffffff160217905550611a08806100616000396000f3fe608060405234801561001057600080fd5b50600436106100ec576000357c0100000000000000000000000000000000000000000000000000000000900480635d85ff1c116100a9578063c19d93fb11610083578063c19d93fb146109d3578063c4b3d4e5146109ff578063d8be5ba814610aee578063fdcd1c9014610b3e576100ec565b80635d85ff1c146105da57806368d25c9214610736578063bcbbfd60146108ba576100ec565b806303076da4146100f157806304d6f0ce146101e0578063050cb6bf146102e5578063054cec58146103c6578063268d7da014610416578063327fad9914610501575b600080fd5b6100f9610ba4565b60405180806020018060200180602001848103845287818151815260200191508051906020019060200280838360005b83811015610144578082015181840152602081019050610129565b50505050905001848103835286818151815260200191508051906020019060200280838360005b8381101561018657808201518184015260208101905061016b565b50505050905001848103825285818151815260200191508051906020019060200280838360005b838110156101c85780820151818401526020810190506101ad565b50505050905001965050505050505060405180910390f35b6102a3600480360360408110156101f657600080fd5b81019080803590602001909291908035906020019064010000000081111561021d57600080fd5b82018360208201111561022f57600080fd5b8035906020019184600183028401116401000000008311171561025157600080fd5b91908080601f016020809104026020016040519081016040528093929190818152602001838380828437600081840152601f19601f820116905080830192505050505050509192919290505050610d34565b604051808273ffffffffffffffffffffffffffffffffffffffff1673ffffffffffffffffffffffffffffffffffffffff16815260200191505060405180910390f35b610311600480360360208110156102fb57600080fd5b8101908080359060200190929190505050610e61565b60405180806020018481526020018373ffffffffffffffffffffffffffffffffffffffff1673ffffffffffffffffffffffffffffffffffffffff168152602001828103825285818151815260200191508051906020019080838360005b8381101561038957808201518184015260208101905061036e565b50505050905090810190601f1680156103b65780820380516001836020036101000a031916815260200191505b5094505050505060405180910390f35b6103f2600480360360208110156103dc57600080fd5b8101908080359060200190929190505050610f52565b6040518082600181111561040257fe5b60ff16815260200191505060405180910390f35b61044c6004803603604081101561042c57600080fd5b810190808035906020019092919080359060200190929190505050610f72565b60405180806020018481526020018373ffffffffffffffffffffffffffffffffffffffff1673ffffffffffffffffffffffffffffffffffffffff168152602001828103825285818151815260200191508051906020019080838360005b838110156104c45780820151818401526020810190506104a9565b50505050905090810190601f1680156104f15780820380516001836020036101000a031916815260200191505b5094505050505060405180910390f35b61054d6004803603604081101561051757600080fd5b81019080803573ffffffffffffffffffffffffffffffffffffffff16906020019092919080359060200190929190505050611070565b604051808481526020018060200183151515158152602001828103825284818151815260200191508051906020019080838360005b8381101561059d578082015181840152602081019050610582565b50505050905090810190601f1680156105ca5780820380516001836020036101000a031916815260200191505b5094505050505060405180910390f35b610606600480360360208110156105f057600080fd5b810190808035906020019092919050505061114c565b604051808673ffffffffffffffffffffffffffffffffffffffff1673ffffffffffffffffffffffffffffffffffffffff16815260200180602001806020018515151515815260200184151515158152602001838103835287818151815260200191508051906020019080838360005b83811015610690578082015181840152602081019050610675565b50505050905090810190601f1680156106bd5780820380516001836020036101000a031916815260200191505b50838103825286818151815260200191508051906020019080838360005b838110156106f65780820151818401526020810190506106db565b50505050905090810190601f1680156107235780820380516001836020036101000a031916815260200191505b5097505050505050505060405180910390f35b6108b8600480360360e081101561074c57600080fd5b8101908080359060200190929190803590602001909291908035906020019092919080359060200190929190803590602001909291908035906020019064010000000081111561079b57600080fd5b8201836020820111156107ad57600080fd5b803590602001918460018302840111640100000000831117156107cf57600080fd5b91908080601f016020809104026020016040519081016040528093929190818152602001838380828437600081840152601f19601f8201169050808301925050505050505091929192908035906020019064010000000081111561083257600080fd5b82018360208201111561084457600080fd5b8035906020019184600183028401116401000000008311171561086657600080fd5b91908080601f016020809104026020016040519081016040528093929190818152602001838380828437600081840152601f19601f8201169050808301925050505050505091929192905050506112ec565b005b6109bd600480360360808110156108d057600080fd5b81019080803573ffffffffffffffffffffffffffffffffffffffff169060200190929190803573ffffffffffffffffffffffffffffffffffffffff169060200190929190803590602001909291908035906020019064010000000081111561093757600080fd5b82018360208201111561094957600080fd5b8035906020019184600183028401116401000000008311171561096b57600080fd5b91908080601f016020809104026020016040519081016040528093929190818152602001838380828437600081840152601f19601f8201169050808301925050505050505091929192905050506114cb565b6040518082815260200191505060405180910390f35b6109db6116cc565b604051808260018111156109eb57fe5b60ff16815260200191505060405180910390f35b610aec60048036036080811015610a1557600080fd5b8101908080359060200190929190803573ffffffffffffffffffffffffffffffffffffffff1690602001909291908035906020019092919080359060200190640100000000811115610a6657600080fd5b820183602082011115610a7857600080fd5b80359060200191846001830284011164010000000083111715610a9a57600080fd5b91908080601f016020809104026020016040519081016040528093929190818152602001838380828437600081840152601f19601f8201169050808301925050505050505091929192905050506116de565b005b610b1a60048036036020811015610b0457600080fd5b81019080803590602001909291905050506117fa565b60405180848152602001838152602001828152602001935050505060405180910390f35b610b8a60048036036040811015610b5457600080fd5b81019080803573ffffffffffffffffffffffffffffffffffffffff16906020019092919080359060200190929190505050611833565b604051808215151515815260200191505060405180910390f35b6060806060600180549050604051908082528060200260200182016040528015610bdd5781602001602082028038833980820191505090505b509250600180549050604051908082528060200260200182016040528015610c145781602001602082028038833980820191505090505b509150600180549050604051908082528060200260200182016040528015610c4b5781602001602082028038833980820191505090505b50905060008090505b600180549050811015610d2557600181815481101515610c7057fe5b9060005260206000209060030201600001548482815181101515610c9057fe5b9060200190602002018181525050600181815481101515610cad57fe5b9060005260206000209060030201600201548382815181101515610ccd57fe5b9060200190602002018181525050600181815481101515610cea57fe5b9060005260206000209060030201600101548282815181101515610d0a57fe5b90602001906020020181815250508080600101915050610c54565b50828282925092509250909192565b6000600660003373ffffffffffffffffffffffffffffffffffffffff1673ffffffffffffffffffffffffffffffffffffffff168152602001908152602001600020600084815260200190815260200160002060020160009054906101000a900460ff16151515610da357600080fd5b6003600084815260200190815260200160002060000160009054906101000a900473ffffffffffffffffffffffffffffffffffffffff169050610de8813385856114cb565b506000600660003373ffffffffffffffffffffffffffffffffffffffff1673ffffffffffffffffffffffffffffffffffffffff1681526020019081526020016000206000858152602001908152602001600020905060018160020160006101000a81548160ff0219169083151502179055505092915050565b600281815481101515610e7057fe5b9060005260206000209060030201600091509050806000018054600181600116156101000203166002900480601f016020809104026020016040519081016040528092919081815260200182805460018160011615610100020316600290048015610f1c5780601f10610ef157610100808354040283529160200191610f1c565b820191906000526020600020905b815481529060010190602001808311610eff57829003601f168201915b5050505050908060010154908060020160009054906101000a900473ffffffffffffffffffffffffffffffffffffffff16905083565b60056020528060005260406000206000915054906101000a900460ff1681565b600460205281600052604060002081815481101515610f8d57fe5b906000526020600020906003020160009150915050806000018054600181600116156101000203166002900480601f01602080910402602001604051908101604052809291908181526020018280546001816001161561010002031660029004801561103a5780601f1061100f5761010080835404028352916020019161103a565b820191906000526020600020905b81548152906001019060200180831161101d57829003601f168201915b5050505050908060010154908060020160009054906101000a900473ffffffffffffffffffffffffffffffffffffffff16905083565b600660205281600052604060002060205280600052604060002060009150915050806000015490806001018054600181600116156101000203166002900480601f01602080910402602001604051908101604052809291908181526020018280546001816001161561010002031660029004801561112f5780601f106111045761010080835404028352916020019161112f565b820191906000526020600020905b81548152906001019060200180831161111257829003601f168201915b5050505050908060020160009054906101000a900460ff16905083565b60036020528060005260406000206000915090508060000160009054906101000a900473ffffffffffffffffffffffffffffffffffffffff1690806002018054600181600116156101000203166002900480601f01602080910402602001604051908101604052809291908181526020018280546001816001161561010002031660029004801561121e5780601f106111f35761010080835404028352916020019161121e565b820191906000526020600020905b81548152906001019060200180831161120157829003601f168201915b505050505090806003018054600181600116156101000203166002900480601f0160208091040260200160405190810160405280929190818152602001828054600181600116156101000203166002900480156112bc5780601f10611291576101008083540402835291602001916112bc565b820191906000526020600020905b81548152906001019060200180831161129f57829003601f168201915b5050505050908060040160009054906101000a900460ff16908060040160019054906101000a900460ff16905085565b600760009054906101000a900473ffffffffffffffffffffffffffffffffffffffff1673ffffffffffffffffffffffffffffffffffffffff163373ffffffffffffffffffffffffffffffffffffffff1614151561134857600080fd5b6003600088815260200190815260200160002060040160019054906101000a900460ff1615151561137857600080fd5b6000600190506000600360008a815260200190815260200160002090506000600360008b81526020019081526020016000206001019050826060604051908101604052808c81526020018b81526020018a81525090806001815401808255809150509060018203906000526020600020906003020160009091929091909150600082015181600001556020820151816001015560408201518160020155505050848260030190805190602001906114309291906118b7565b5060018260040160016101000a81548160ff021916908315150217905550838260020190805190602001906114669291906118b7565b508060408051908101604052808981526020018881525090806001815401808255809150509060018203906000526020600020906002020160009091929091909150600082015181600001556020820151816001015550505050505050505050505050565b60006003600084815260200190815260200160002060000160009054906101000a900473ffffffffffffffffffffffffffffffffffffffff1673ffffffffffffffffffffffffffffffffffffffff168573ffffffffffffffffffffffffffffffffffffffff1614151561153d57600080fd5b6000600360008581526020019081526020016000209050600060029050858260000160006101000a81548173ffffffffffffffffffffffffffffffffffffffff021916908373ffffffffffffffffffffffffffffffffffffffff160217905550600660008773ffffffffffffffffffffffffffffffffffffffff1673ffffffffffffffffffffffffffffffffffffffff1681526020019081526020016000206000868152602001908152602001600020600001549250806060604051908101604052808681526020018581526020018873ffffffffffffffffffffffffffffffffffffffff1681525090806001815401808255809150509060018203906000526020600020906003020160009091929091909150600082015181600001908051906020019061166d929190611937565b506020820151816001015560408201518160020160006101000a81548173ffffffffffffffffffffffffffffffffffffffff021916908373ffffffffffffffffffffffffffffffffffffffff1602179055505050505050949350505050565b6000809054906101000a900460ff1681565b6003600085815260200190815260200160002060040160019054906101000a900460ff16151561170d57600080fd5b3373ffffffffffffffffffffffffffffffffffffffff166003600086815260200190815260200160002060000160009054906101000a900473ffffffffffffffffffffffffffffffffffffffff1673ffffffffffffffffffffffffffffffffffffffff1614151561177d57600080fd5b6000600660008573ffffffffffffffffffffffffffffffffffffffff1673ffffffffffffffffffffffffffffffffffffffff16815260200190815260200160002060008681526020019081526020016000209050828160000181905550818160010190805190602001906117f29291906118b7565b505050505050565b60018181548110151561180957fe5b90600052602060002090600302016000915090508060000154908060010154908060020154905083565b6000806003600084815260200190815260200160002090508060040160009054906101000a900460ff1615151561186957600080fd5b838160000160006101000a81548173ffffffffffffffffffffffffffffffffffffffff021916908373ffffffffffffffffffffffffffffffffffffffff160217905550600191505092915050565b828054600181600116156101000203166002900490600052602060002090601f016020900481019282601f106118f857805160ff1916838001178555611926565b82800160010185558215611926579182015b8281111561192557825182559160200191906001019061190a565b5b50905061193391906119b7565b5090565b828054600181600116156101000203166002900490600052602060002090601f016020900481019282601f1061197857805160ff19168380011785556119a6565b828001600101855582156119a6579182015b828111156119a557825182559160200191906001019061198a565b5b5090506119b391906119b7565b5090565b6119d991905b808211156119d55760008160009055506001016119bd565b5090565b9056fea165627a7a7230582063433c9943d818537a1b8bf28d41e92c53e0c252a5853f8fe092955b8ef67e220029",
  "source": "pragma solidity 0.5.4;\r\n// pragma experimental ABIEncoderV2;\r\n\r\ncontract Lands {\r\n    \r\n    struct Title {\r\n        bytes32 landNumber;\r\n        bytes32 location;\r\n        bytes32 size;\r\n    }\r\n\r\n    struct Specs {\r\n        address owner;\r\n        Coordinates[] map;\r\n        string ipfsTitleDeed;\r\n        string issueDate;\r\n        bool alloted;\r\n        bool registered;\r\n    }\r\n\r\n    struct Coordinates {\r\n        int long;\r\n        int lat;\r\n    } \r\n   \r\n    struct SaleCondition {\r\n        uint256 amount;\r\n        string conditions;\r\n        bool accepted;\r\n    \r\n    }\r\n\r\n    struct History {\r\n        string date;\r\n        uint256 sellamount;\r\n        address currentowner;\r\n    } \r\n\r\n    enum State {onsell, oncaveat }\r\n\r\n    State public state;\r\n\r\n    Title[] public titleDetails;\r\n    History[] public landHistory;\r\n\r\n    mapping(bytes32=>Specs)public landDetails;\r\n    mapping (bytes32=>History[])public landHistories;\r\n    mapping (bytes32=>State)public landState;\r\n    mapping (address=>mapping (bytes32=>SaleCondition)) public landSales;\r\n\r\n\r\n    address private government;\r\n\r\n    constructor ()public {\r\n        government = msg.sender;\r\n    }\r\n   \r\n    // modifier name() {\r\n    //     _\r\n    // }\r\n\r\n    function registerLand\r\n    (bytes32 _landnumber, bytes32 _location, bytes32 _size, int _long, int _lat,\r\n    string memory _issueDate, string memory _ipfsTitleDeed) public  \r\n    {\r\n        require(msg.sender == government);\r\n        require(!landDetails[_landnumber].registered);\r\n        Title[] storage titl = titleDetails;\r\n        Specs storage spec = landDetails[_landnumber];\r\n        Coordinates[] storage cord = landDetails[_landnumber].map;\r\n        titl.push(Title({\r\n            landNumber : _landnumber,\r\n            location : _location,\r\n            size : _size\r\n        }));\r\n        spec.issueDate = _issueDate;\r\n        spec.registered = true;\r\n        spec.ipfsTitleDeed = _ipfsTitleDeed;\r\n        cord.push(Coordinates({\r\n            long : _long,\r\n            lat : _lat\r\n        }));\r\n    }\r\n\r\n    function allotLand(address _to, bytes32 _landnumber)public returns(bool success) {\r\n        Specs storage spec = landDetails[_landnumber];\r\n        require(!spec.alloted);\r\n        spec.owner = _to;\r\n        return true;\r\n    }\r\n\r\n    function initiateSell\r\n    (bytes32 _landnumber, address _to, uint256 _amount, string memory _condition )public \r\n    {\r\n        require(landDetails[_landnumber].registered);\r\n        require(landDetails[_landnumber].owner == msg.sender); \r\n        SaleCondition storage scon = landSales[_to][_landnumber];\r\n        scon.amount = _amount;\r\n        scon.conditions = _condition;\r\n    }\r\n\r\n    function acceptSell\r\n    (bytes32 _landnumber, string memory _date )public returns(address _from) \r\n    {\r\n        require(!landSales[msg.sender][_landnumber].accepted);\r\n        _from = landDetails[_landnumber].owner;\r\n        transferland(_from, msg.sender, _landnumber, _date);\r\n        SaleCondition storage scon = landSales[msg.sender][_landnumber];\r\n        scon.accepted = true;\r\n    }\r\n\r\n    function transferland\r\n    (address _from, address _to, bytes32 _landnumber, string memory _date ) public returns(uint256 _amount)\r\n    {   \r\n        require(_from == landDetails[_landnumber].owner);\r\n        Specs storage spec = landDetails[_landnumber];\r\n        History[] storage hist = landHistory;\r\n        spec.owner = _to;\r\n        _amount = landSales[_to][_landnumber].amount;\r\n        hist.push(History({\r\n            currentowner:_to,\r\n            sellamount:_amount,\r\n            date:_date\r\n        }));\r\n\r\n    } \r\n\r\n    function registeredLands()public view returns(bytes32[] memory ln, bytes32[] memory sz, bytes32[] memory  lo) {\r\n        ln = new bytes32[](titleDetails.length);\r\n        sz = new bytes32[](titleDetails.length);\r\n        lo = new bytes32[](titleDetails.length);\r\n        for (uint i = 0; i < titleDetails.length; i++) {\r\n            \r\n            ln[i] = titleDetails[i].landNumber;\r\n            sz[i] = titleDetails[i].size;\r\n            lo[i] = titleDetails[i].location;\r\n        }\r\n        return(ln, sz, lo);\r\n    }\r\n}",
  "sourcePath": "C:/Users/COLLINS/Desktop/land/contracts/lands.sol",
  "compiler": {
    "name": "solc",
    "version": "0.5.4+commit.9549d8ff.Emscripten.clang"
  },
  "schemaVersion": "3.0.0-beta.2",
  "updatedAt": "2019-03-22T09:55:53.228Z",
  "devdoc": {
    "methods": {}
  },
  "userdoc": {
    "methods": {}
  }
}